:020000040800F2
:10000000204F0020F50200088D3300081F2F000844
:1000100089330008550900088D35000800000000EC
:100020000000000000000000000000003502000891
:1000300089090008000000009102000891330008BF
:100040000F0300080F0300080F0300080F03000848
:100050000F0300080F0300080F0300080F03000838
:100060000F0300080F0300080F0300080F03000828
:100070000F0300080F0300080F0300080F03000818
:100080000F0300080F0300080F0300080F03000808
:10009000590900080F0300080F030008A70900080A
:1000A0000F0300080F0300080F0300080F030008E8
:1000B0000F0300080F0300080F0300080F030008D8
:1000C0000F0300080F0300080F0300080F030008C8
:1000D0000F0300080F0300080F0300080F030008B8
:1000E0008B0900080F0300080F0300080F03000826
:1000F0000F030008293400080F0300080F0300084D
:100100000F0300080F0300080F0300080F03000887
:100110000F0300080F0300080F0300080F03000877
:10012000790900080F0300080F0300080F030008F7
:100130000F03000800000000000000000F0300088B
:10014000690900080F0300080F0300080F030008E7
:100150000F0300080F0300080F0300080F03000837
:100160000F0300080F0300080F0300080F03000827
:100170000F0300080F03000800000000000000004B
:100180000F0300080F03000800F002F800F042F827
:100190000AA090E8000C82448344AAF10107DA45E2
:1001A00001D100F037F8AFF2090EBAE80F0013F0F2
:1001B000010F18BFFB1A43F001031847C07D000070
:1001C000E07D0000103A24BF78C878C1FAD8520701
:1001D00024BF30C830C144BF04680C6070470000C1
:1001E0000023002400250026103A28BF78C1FBD840
:1001F000520728BF30C148BF0B6070471FB507F0DA
:100200008EFD9DE8030000F009FA00F089F91FBD9A
:1002100010B510BD00F0B8FA1146FFF7EFFF05F07A
:10022000E1FF00F0F5FA03B4FFF7F2FF03BC00F0C2
:10023000A5FA00002C4B19680868B0E8F04F80F36D
:100240000988BFF36F8F4FF0000080F3118870476B
:100250000000000008480068006880F308884FF03C
:10026000000080F3148862B661B6BFF34F8FBFF30E
:100270006F8F00DF00BF00BF08ED00E0DFF80C006B
:10028000016841F470010160704700BF88ED00E033
:10029000EFF30980BFF36F8F134B1A681EF0100F36
:1002A00008BF20ED108A20E9F04F106009B44FF02C
:1002B000500080F31188BFF34F8FBFF36F8F06F0AC
:1002C000B9FC4FF0000080F3118809BC1968086878
:1002D000B0E8F04F1EF0100F08BFB0EC108A80F3AA
:1002E0000988BFF36F8F704718000020EFF3058077
:1002F000704700000948804709480047FEE7FEE7CD
:10030000FEE7FEE7FEE7FEE7FEE7FEE7FEE7FEE7C5
:1003100004480549054A064B70470000C5330008EC
:100320008901000820490020204F0020204B002098
:10033000204B002053EA020C00F069802DE9F04BBD
:100340004FF00006002B1FBFB3FA83F503FA05F444
:1003500024FA05F65E4012BF1643B2FA82F502FA9D
:1003600005F4C5F120051EBF22FA05FC44EA0C0481
:10037000203556EA044C4FEA144418BF641C4FF071
:1003800000084FF00009904271EB030C39D30029AB
:1003900019BFB1FA81F701FA07F6B0FA80F700FA4F
:1003A00007F6C7F120071EBF20FA07FC46EA0C0635
:1003B0002037B6FBF4FCA7EB0507103F07F01F0B37
:1003C000CBF120060CFA0BFB2CFA06F644BFB34621
:1003D0000026202FA4BF5E464FF0000B5BEA060C00
:1003E00008BF4FF0010B19EB0B09ABFB027C48EB8C
:1003F0000608C01B06FB02CC0BFB03CC71EB0C0107
:10040000C1E70B46024641464846BDE8F08B13B5AE
:100410004FF000004FF00001AFF30080BDE81C403A
:10042000704710B5203AC0F00B80B1E81850203A60
:10043000A0E81850B1E81850A0E81850BFF4F5AF84
:100440005FEA027C24BFB1E81850A0E8185044BF0E
:1004500018C918C0BDE810405FEA827C24BF51F87B
:10046000043B40F8043B08BF7047D20728BF31F86F
:10047000023B48BF11F8012B28BF20F8023B48BFC0
:1004800000F8012B70474FF000020429C0F01280E1
:1004900010F0030C00F01B80CCF1040CBCF1020F37
:1004A00018BF00F8012BA8BF20F8022BA1EB0C010C
:1004B00000F00DB85FEAC17C24BF00F8012B00F802
:1004C000012B48BF00F8012B70474FF0000200B528
:1004D000134694469646203922BFA0E80C50A0E867
:1004E0000C50B1F12001BFF4F7AF090728BFA0E815
:1004F0000C5048BF0CC05DF804EB890028BF40F8E1
:10050000042B08BF704748BF20F8022B11F0804F22
:1005100018BF00F8012B7047704770477047000004
:1005200070B5064C7C44064D7D4403E020682044B1
:100530008047241DAC42F9D170BD0000747A0000E0
:10054000747A000000487047F448002070B50646F1
:1005500000F044F8056806F10B0020F00704B442EF
:100560009CBF002070BD2B466A68BAB11068A042DB
:1005700010D304F1080188423CBF5068586007D38B
:100580005168101941601168091B016058601460BE
:10059000101D70BD13465268002AE7D12146284637
:1005A00000F028F80028DED170BD10B500F01AF870
:1005B000006810BD10B5044600F014F8046010BDCA
:1005C00010B500F08DF8BDE8104000F084B800F0E0
:1005D0009FB8000000487047C0480020004870479E
:1005E000C848002000487047C04800207047704746
:1005F0007047704738B504460A4600206946AFF395
:100600000080002808BF38BD02460099204600F04F
:10061000E5F8012038BD012000F027B9F8B5AFF3A7
:100620000080054600200C46102000BF0646A81991
:10063000A0420DD9324669460020AFF30080070082
:1006400008BF00F012F90098A04218BF0546C4196F
:10065000FFF7C4FF05600746F01D20F007004619AC
:10066000284600F00AF8B44208BFF8BDA21B314684
:100670003868BDE8F84000F0B1B800210160C0E979
:10068000011070471020704770B50446051FFFF732
:10069000A5FF0068002C14BF446870BD002C18BF73
:1006A000AC423CBF20466468F8D301680A18AA42ED
:1006B00018BF456003D12A680546114401602868C7
:1006C0004119A1421CBF6C6070BD616869602168FE
:1006D0000844286070BD002801D000F04FB8704772
:1006E00010B5002102A000F0A7F8012010BD000005
:1006F0005349475056464E3A2050757265207669E8
:10070000727475616C20666E2063616C6C65640048
:1007100010B500F00EF8016919B100220261884796
:1007200001E08068804700F07CF8000010B500F020
:1007300078F870B500F04EF804680546A4B920209A
:10074000FFF704FF040011D0094900202C60C4E920
:1007500000010849A1602073206160610649A06121
:1007600009B100F089F8E061204670BD00F059F849
:10077000000000002D0700080000000001491820BB
:10078000ABBEFEE7260002007546FFF723FFAE462C
:1007900005006946534620F00700854618B020B58D
:1007A000FFF7B6FDBDE820404FF000064FF0000710
:1007B0004FF000084FF0000B21F00701AC46ACE809
:1007C000C009ACE8C009ACE8C009ACE8C0098D4676
:1007D0007047000000487047FC480020034640680E
:1007E0008C46002818BF88423CBF03464068F8D3B7
:1007F00018681844884207D00CF1030020F0070065
:10080000001D411A521A0146081D0A60FFF73CBF3D
:1008100010B50446AFF300802046BDE81040FFF756
:1008200002BD10B5002000F04DF8FFF7F1FCBDE867
:1008300010400120FFF7A2BF70B505460C460A2004
:1008400000E06D1C00F036F835B128780028F8D1AA
:1008500002E0641C00F02EF814B120780028F8D1D2
:10086000BDE870400A2000F025B810B500F032F85D
:10087000BDE81040FFF72FBF10B58820FFF766FED8
:10088000002801D00021017010BD802902D808B1D4
:10089000017809B100207047012100F8081B70475A
:1008A00018B100F10802914201D0002070470021E8
:1008B0000170704708B569468DF800000320ABBE93
:1008C00008BD704710B500F02DF8BDE81040FFF7E7
:1008D00002BF000010B5012805D0002103A0FFF7DA
:1008E000ABFF012010BD09A1F8E7000053494752B2
:1008F000544D454D3A204F7574206F6620686561F0
:1009000070206D656D6F7279000000003A204865B7
:100910006170206D656D6F727920636F7272757092
:100920007465640010B5002102A0FFF785FF012067
:1009300010BD0000534947414252543A2041626E73
:100940006F726D616C207465726D696E6174696F30
:100950006E00000000BFFEE710B5024800F059FD30
:1009600010BD00009001002010B5024800F051FDBC
:1009700010BD0000B801002010B5024801F040F899
:1009800010BD000030010020704710B54FF400503A
:1009900001F052FA4FF4804001F04EFA4FF400405B
:1009A00001F04AFA10BD10B54FF4807001F044FA1E
:1009B00010BD704738B502460020009000BF92F885
:1009C0003C00012801D1022038BD012082F83C0002
:1009D00000BF0868092816D91068C0680C780A3C5E
:1009E00004EB44050724AC40A0431468E0600C7895
:1009F0000A3C04EB44048868A0401468E46820437F
:100A00001468E06013E0106800690C7804EB44059A
:100A10000724AC40A043146820610C7804EB440424
:100A20008868A040146824692043146820614868DD
:100A3000072817D21068406B0C79641E04EB8405FC
:100A40001F24AC40A04314686063088880B20C790E
:100A5000641E04EB8404A0401468646B2043146893
:100A6000606331E048680D2817D21068006B0C797C
:100A7000E41F04EB84051F24AC40A04314682063EA
:100A8000088880B20C79E41F04EB8404A040146849
:100A9000246B20431468206316E01068C06A0C7948
:100AA0000D3C04EB84051F24AC40A0431468E062B5
:100AB000088880B20C790D3C04EB8404A0401468D3
:100AC000E46A20431468E062194B1A4C1068A04293
:100AD00006D10868122803D1586840F48000586095
:100AE000144C1068A0421CD10868102802D0086875
:100AF000112816D1586840F4000058600868102882
:100B00000FD10D4800680D4CB0FBF4F000EB8000F5
:100B10004000009002E00098401E009000980028DD
:100B2000F9D100BF002082F83C0000BF00BF4BE7B6
:100B300000230140002001401400002040420F002B
:100B400070B52DED068B05466C4885427DD100239E
:100B50004FF4C8726A496B4803F032F901234FF42D
:100B6000C8726949674803F02BF902234FF4C87231
:100B70006649644803F024F903234FF4C8726449BA
:100B8000604803F01DF964215D4802F037FD6148BB
:100B900080ED000A64215C4802F030FD5D4880ED84
:100BA000010A6421594802F029FD5A4880ED020AE1
:100BB0006421574802F022FD564880ED030A0020C8
:100BC00063E0092113E000EB8002534B03EBC20307
:100BD0004A1E03EB820292ED000A00EB80024E4BAC
:100BE00003EBC20202EB810282ED000A491E0029DA
:100BF000E9DC484901EB800191ED000A00EB80013E
:100C0000454A02EBC10181ED000A002115E000EB2D
:100C10008002414B03EBC20202EB810292ED000A1B
:100C20003E4A02EB8002D2ED000A30EE200A3B4A37
:100C300002EB800282ED000A491C0A29E7DB3749F2
:100C400001EB800191ED000A00E053E0F2EE040AAE
:100C500080EE201A314901EB800181ED001A2F4905
:100C600001EB8001D1ED000A2D4931F8101000EEA2
:100C7000101AB8EE400A30EEC00ABCEEC00A10EE00
:100C8000101A284A22F81010401C042899DB00246E
:100C90002EE0244830F8140040F2EE21884203DAB6
:100CA0000846204921F814001E4931F8140006F0C6
:100CB00080FC41EC1A0B9FED1C1BB0EE4A0AF0EED3
:100CC0006A0A04F025FBB0EE409AF0EE609A9FEDC0
:100CD000180B53EC102B51EC190B06F0B9FC41EC3E
:100CE000180B06F009FA144941F82400601CC4B23C
:100CF000022CCEDBBDEC068B70BD0000E8000020AE
:100D000008430020E83F0020D04300209844002002
:100D1000604500202846002038460020D8460020A4
:100D20007C00002084000020666666666666F4BF6C
:100D300000000000185D1141E84600207047704730
:100D400070B5044600250CB9012070BD1549A06A94
:100D5000884200D000BF206C30B9204600F024F853
:100D60000020606484F83C00206C00F0100088B91A
:100D7000206C20F4885040F002002064204603F0EC
:100D800031FC00206064206C20F0020040F0010083
:100D9000206400E0012500BF002084F83C0000BF73
:100DA0002846D2E70100000F10B586B00446142192
:100DB00001A8FFF78AFB28492068884249D100BF73
:100DC000002000902548006840F4807023490860A6
:100DD0000846006800F48070009000BF00BF00BFAC
:100DE000002000901D481438006840F004001B49A2
:100DF000143908600846006800F00400009000BF45
:100E000000BF0320019002900020039001A9144824
:100E100001F020F8134814490860002048600021C0
:100E200011488160C1604FF48061016149004161F6
:100E3000890081614911C16100210162416200F0B4
:100E4000FFFE08B1FFF7B5FD00BF0748A06384634C
:100E500000BF06B010BD0000002001404438024031
:100E6000000802401064024030010020F8B504463A
:100E70000D4616460020009000BF94F83C00012863
:100E800001D10220F8BD012084F83C0000BF206899
:100E9000806800F00100A0B92068806840F001007F
:100EA00021688860494800684949B0FBF1F000EBCF
:100EB0004000009002E00098401E0090009800283A
:100EC000F9D12068806800F0010000287CD0206CF7
:100ED00040F20161884340F48070206420684068DB
:100EE00000F4806028B1206C20F4005040F4805061
:100EF0002064206C00F48050B0F5805F04D1606CF9
:100F000020F00600606401E00020606400BF002063
:100F100084F83C0000BF2F4F2F48A16BC8632F48B7
:100F2000A16B08642E48A16BC8646FF02200216891
:100F300008602068406840F0806021684860206850
:100F4000806840F4807021688860226802F14C015A
:100F500033462A46A06B00F0E9FE786800F01F00D7
:100F600018BB20492068884213D01F492068884256
:100F700004D1381D006800F01F0050B11B492068E3
:100F8000884221D11348001D006800F01F0010287E
:100F90001AD22068806800F0405028B92068806824
:100FA00040F08040216888600EE00E492068884249
:100FB0000AD12068806800F0405028B92068806815
:100FC00040F080402168886000205BE7140000202A
:100FD00040420F000023014057450008D545000856
:100FE0003D45000800200140002101400022014051
:100FF00010B5024692F82030012B01D0022B06D109
:1010000010684069084314686061002010BD506A90
:1010100040F4802050620120F8E7F0B504460D4608
:101020001E4694F8207020688368A86800B900E024
:1010300000BF012F01D0022F7CD103F0806030B9B6
:1010400003F0006018B903F08050002873D0C3F398
:101050000161022905D9606A40F400006062012044
:10106000F0BD012088403060A86860B9B5F800C0C4
:10107000E86840EA4C5C206800F5C07000EB0110A5
:10108000C0F800C00FE0D5E901C040EACC00D5F8B7
:101090000CC040EA0C00D4F800C00CF5C07C0CEB8E
:1010A000011CCCF80000D5F810C0206800F5C07015
:1010B00000EB0110C0F804C0287D01280ED1206883
:1010C00000F5C07000EB0110406840F4807C20689F
:1010D00000F5C07000EB0110C0F804C0D079000624
:1010E00092F806C040EA0C4092F805C040EA0C2C89
:1010F00010794CEA000C206800F5C07000EB01107C
:10110000C0F80CC0D078000692F802C040EA0C404B
:1011100092F801C040EA0C2092F800C040EA0C00AE
:10112000D4F800C00CF5C07C0CEB011CCCF8080016
:10113000206801E016E00FE000F5C07000EB011040
:10114000006840F0010C206800F5C07000EB011051
:10115000C0F800C0002083E7606A40F400106062BD
:1011600001207DE7606A40F480206062012077E71B
:10117000F0B504460A46216894F82050012D01D0AC
:10118000022D7ED1424901F50071086840F001004E
:101190000860086820F47C5008600868566A40EAD5
:1011A00006200860107D00F01F06012000FA06F3FB
:1011B000C8699843C861A1F50071D069C8B9D1F870
:1011C0000C029843C1F80C02908880B2968940EADC
:1011D000064601F51070576940F83760108880B2F4
:1011E000168940EA064601F51070576900EBC70002
:1011F0004660D069012819D1D1F80C021843C1F812
:101200000C02908880B2168840EA064601F51070FC
:10121000576940F83760908980B2168940EA0646DF
:1012200001F51070576900EBC7004660906928B956
:10123000D1F804029843C1F8040204E0D1F8040292
:101240001843C1F80402106928B9D1F81402984370
:10125000C1F8140204E0D1F814021843C1F81402D2
:10126000106A012804D1D1F81C021843C1F81C02ED
:10127000D1F8000220F00100C1F800020020F0BD0A
:10128000FFE7606A40F4802060620120F7E7000019
:1012900000640040704770B5044694F82050012D5A
:1012A00001D0022D7CD151B92068C06800F0030044
:1012B00080B9606A40F400106062012070BD20684F
:1012C000006900F0030028B9606A40F40010606211
:1012D0000120F3E7206800F5D87000EB01100068EA
:1012E00000F004009060906840B9206800F5D87064
:1012F00000EB01100068400D106007E0206800F569
:10130000D87000EB01100068C0085060206800F53C
:10131000D87000EB0110006800F002004008D060B7
:10132000206800F5D87000EB0110406800F00F0055
:101330001061206800F5D87000EB0110406800F4DF
:101340007F40000A9061206800F5D87000EB011022
:101350004068000C5061206800F5D87000EB011067
:1013600080681870206800F5D87000EB0110806864
:1013700000F47F40000A5870206800F5D87000EB38
:101380000110806800F47F00000C9870206800F560
:10139000D87000EB01108068000ED870206800E063
:1013A00031E000F5D87000EB0110C06818712068BA
:1013B00000F5D87000EB0110C06800F47F40000A0F
:1013C0005871206800F5D87000EB0110C06800F477
:1013D0007F00000C9871206800F5D87000EB0110B8
:1013E000C068000ED87131B92068C06840F0200094
:1013F0002668F06005E02068006940F0200026685B
:10140000306100205AE7606A40F480206062012069
:1014100054E72DE9F05F04460025206846692068FE
:10142000D0F80490206887682068D0F80CA0206865
:10143000D0F810B02068D0F8188006F0010000281D
:1014400055D007F00100C0B101202168886007F085
:10145000020018B1204600F0CCFA0EE007F00400BC
:1014600010B145F4006508E007F0080010B145F43C
:10147000805502E0204600F0BBFA07F48070C8B146
:101480004FF480702168886007F4007018B120461E
:1014900000F0B1FA0EE007F4806010B145F4005599
:1014A00008E007F4006010B145F4804502E02046F2
:1014B00000F0A0FA07F48030C8B14FF48030216802
:1014C000886007F4003018B1204600F096FA0EE06C
:1014D00007F4802010B145F4004508E007F400202F
:1014E00010B145F4803502E0204600F085FA06F0A0
:1014F000080038B10AF0100020B145F40075102042
:101500002168C86006F0040040B10AF0080028B164
:1015100008202168C860204600F00EFA06F002009C
:1015200038B12068C06800F0030010B1204600F018
:1015300005FA06F0400038B10BF0100020B145F478
:10154000806510202168086106F0200040B10BF092
:10155000080028B1082021680861204600F016FA2A
:1015600006F0100038B12068006900F0030010B1E7
:10157000204600F00CFA06F4003040B109F01000EB
:1015800028B1102021684860204600F001FA06F4D6
:10159000803040B109F0080028B108202168486077
:1015A000204600F02BFA06F4004088B309F004004E
:1015B00078B306F4807020B108F0010008B145F05E
:1015C000010506F4007020B108F0020008B145F0F2
:1015D000020506F4806020B108F0040008B145F06F
:1015E000040506F40060A0B108F0700088B108F0AE
:1015F0007000402817D006DC10280BD020280CD013
:10160000302819D10CE0502810D0602814D110E0F7
:101610001DE019E045F008050FE045F010050CE06D
:1016200045F0200509E045F0400506E045F080055D
:1016300003E045F4807500E000BF00BF20688069CA
:1016400020F07000216888610420216848602DB175
:10165000606A284360622046FFF71CFEBDE8F09FE9
:1016600070B504460CB9012070BD94F8200010B983
:10167000204600F0AFF82068006820F002002168E2
:10168000086000F0F5FC05460DE000F0F1FC401BA1
:101690000A2808D9606A40F400306062052084F8A6
:1016A00020000120E0E72068406800F002000028E8
:1016B000EBD12068006840F001002168086000F06C
:1016C000D7FC05460DE000F0D3FC401B0A2808D9E2
:1016D000606A40F400306062052084F82000012038
:1016E000C2E72068406800F001000028EBD0207EAF
:1016F000012806D12068006840F080002168086059
:1017000005E02068006820F0800021680860607EA5
:10171000012806D12068006840F040002168086078
:1017200005E02068006820F0400021680860A07E85
:10173000012806D12068006840F020002168086078
:1017400005E02068006820F0200021680860E07E45
:10175000012806D12068006820F010002168086088
:1017600005E02068006840F0100021680860207FD4
:10177000012806D12068006840F008002168086050
:1017800005E02068006820F0080021680860607F9C
:10179000012806D12068006840F004002168086034
:1017A00005E02068006820F0040021680860D4E9A2
:1017B0000201084321690843616908436168491EC1
:1017C00008432168C86100206062012084F820007D
:1017D000002049E710B586B00446142101A8FEF7A1
:1017E00074FE4F492068884242D14E480068401C30
:1017F0004C4908600846006801280FD100BF00204E
:1018000000904948006840F0007047490860084669
:10181000006800F00070009000BF00BF00BF002013
:10182000009041481038006840F001003E491039EE
:1018300008600846006800F00100009000BF00BF8B
:101840004FF4C0500190022002900020039003202A
:1018500004900920059001A9344800F0FBFA002209
:101860000521142000F0B4FC142000F0A1FC55E088
:101870002F492068884251D100BF002000902A489B
:10188000006840F08060284908600846006800F061
:101890008060009000BF00BF22480068401C2149C2
:1018A00008600846006801280FD100BF00200090A2
:1018B0001D48006840F000701B4908600846006839
:1018C00000F00070009000BF00BF00BF002000903B
:1018D00015481038006840F00200134910390860BC
:1018E0000846006800F00200009000BF00BF4FF4FF
:1018F00040500190022002900020039003200490A9
:101900000920059001A90B4800F0A4FA0022052146
:10191000402000F05DFC402000F04AFC06B010BD05
:1019200000640040000000204038024000000240F7
:1019300000680040000402407047000010B50446F3
:101940000F4B104A00212046FFF7A5FC0E488442A9
:101950000FD10C48006840F20111884203D10848B9
:1019600002F0DCF90AE0064A0649204603F018FBBB
:1019700004E0034A0349204603F012FB10BD0000B7
:10198000B800002080470020B80100207047704751
:10199000704770B5044694F82000012822D1022037
:1019A00084F820002068006820F0010021680860A9
:1019B00000F05EFB05460DE000F05AFB401B0A28D4
:1019C00008D9606A40F400306062052084F8200085
:1019D000012070BD2068406800F001000028EBD1B4
:1019E0006062F6E7606A40F4002060620120F0E780
:1019F00070477047704770477047704770470000E6
:101A0000F8B50446002000908C4800684FF4165149
:101A1000B0FBF1F7A56D2E6894F85C1008208840A3
:101A2000304098B12068006800F0040070B1206870
:101A3000006820F004002168086094F85C10082019
:101A40008840A860606D40F00100606594F85C100B
:101A500001208840304068B12068406900F0800073
:101A600040B194F85C1001208840A860606D40F09F
:101A70000200606594F85C1004208840304068B132
:101A80002068006800F0020040B194F85C10042067
:101A90008840A860606D40F00400606594F85C10B8
:101AA00010208840304078B32068006800F00800BB
:101AB00050B394F85C1010208840A860206800683B
:101AC00000F4802080B12068006800F4002028B96C
:101AD000206CC8B12046216C884715E0A06C98B1F5
:101AE0002046A16C88470FE02068006800F48070F1
:101AF00028B92068006820F0080021680860206C80
:101B000010B12046216C884794F85C102020884052
:101B10003040002865D02068006800F010000028E0
:101B20005FD094F85C1020208840A86094F83500BD
:101B3000052828D12068006820F016002168086078
:101B40002068406920F0800021684861206C08B955
:101B5000A06C28B12068006820F0080021680860A7
:101B600094F85C103F208840A86000BF002084F8F3
:101B7000340000BF012084F83500206D10B12046EC
:101B8000216D8847F8BD2068006800F4802080B18E
:101B90002068006800F4002028B9606C10B120466D
:101BA000616C88471DE0E06BD8B12046E16B884747
:101BB00017E02068006800F4807068B92068006849
:101BC00020F010002168086000BF002084F8340075
:101BD00000BF012084F83500E06B10B12046E16BB6
:101BE0008847606D38B3606D00F00100F0B10520EA
:101BF00084F835002068006820F001002168086042
:101C000000BF0098401C0090B84200D905E0206851
:101C1000006800F001000028F3D100BF00BF0020E1
:101C200084F8340000BF012084F83500E06C10B166
:101C30002046E16C884700BFA4E7000014000020A4
:101C40002DE9F0410446002500F012FA074614B9C8
:101C50000120BDE8F081606A00B100BF00BF002034
:101C600084F8340000BF022084F835002068006842
:101C700020F00100216808600AE000F0F9F9C01BBB
:101C8000052805D920206065032084F83500E0E7A9
:101C90002068006800F001000028EED12068056887
:101CA00021480540D4E901010843E168084321695E
:101CB000084361690843A1690843E1690843216A4F
:101CC00008430543606A042803D1D4E90B010843A3
:101CD0000543206805602068456925F00705606AAE
:101CE0000543606A04280DD1A06A0543E06A48B143
:101CF000204602F03DFD28B140206065012084F8B7
:101D00003500A6E720684561204602F087FD0646BB
:101D100094F85C103F208840B0600020606501208E
:101D200084F83500002094E73F8010F02DE9F0475B
:101D300004460D4616461F464FF00008D4F858904A
:101D400000BF94F83400012802D10220BDE8F087DA
:101D5000012084F8340000BF94F8350001282BD10D
:101D6000022084F83500002060653B463246294653
:101D7000204602F0E7FC94F85C103F208840C9F848
:101D800008002068006840F016002168086020689C
:101D9000406940F0800021684861206C28B12068CB
:101DA000006840F00800216808602068006840F082
:101DB00001002168086006E000BF002084F83400BC
:101DC00000BF4FF002084046C0E7000010B50446CF
:101DD000B4F5007F20D0B4F5005F15D0B4F5804F86
:101DE0000AD0B4F5004F1FD14FF400410F4800F066
:101DF00031F90F49087017E04FF480410B4800F0AB
:101E000029F90B4948700FE04FF40051074800F0E2
:101E100021F90749887007E04FF40071054800F088
:101E200019F90349C87000BF00BF10BD0008024087
:101E3000D20000200004024010B5044604480068A7
:101E4000204020B1024804602046FFF7BFFF10BDCC
:101E5000143C0140F8B502460B4600250024002042
:101E60000021DCE0012606FA01F51E6806EA0504F9
:101E7000AC4273D15E68022E02D05E68122E13D17E
:101E8000CF0802F1200656F827004E07F70E0F265E
:101E9000BE40B0434F07FF0E1E69BE403043CF081F
:101EA00002F1200646F8270010684F000326BE40C6
:101EB000B0431E7906F003064F00BE403043106069
:101EC0005E68012E08D05E68022E05D05E68112E75
:101ED00002D05E68122E13D190684F000326BE40D8
:101EE000B0434F00DE68BE4030439060506801262A
:101EF0008E40B0431E79C6F300168E4030435060CA
:101F0000D0684F000326BE40B0434F009E68BE40DD
:101F10003043D0605E6806F08056B6F1805F7DD1B8
:101F200000BF00260096404E366846F480463E4F7D
:101F30003E603E46366806F48046009600BF00BF0D
:101F40003A4E8F0856F827008E07370F0F26BE40EF
:101F5000B043374EB24202D1002624E05EE0354E57
:101F6000B24201D101261EE0334EB24201D1022617
:101F700019E0324EB24201D1032614E0304EB24293
:101F800001D104260FE02F4EB24201D105260AE00E
:101F90002D4EB24201D1062605E02C4EB24201D1AF
:101FA000072600E008268F073F0FBE4030431F4E34
:101FB0008F0846F82700264E3068A0435E6806F476
:101FC0008036B6F5803F00D12043214E3060361D6B
:101FD0003068A0435E6806F40036B6F5003F00D1D5
:101FE00020431B4E361D3060361D3068A0435E68AE
:101FF00006F48016B6F5801F00D12043144E083633
:102000003060361D3068A0435E6806F40016B6F5F1
:10201000001F00D120430E4E0C363060491C1029A1
:10202000FFF420AFF8BD00004438024008380140FA
:10203000000002400004024000080240000C024080
:10204000001002400014024000180240001C024030
:10205000003C0140024613690B400BB1012000E037
:10206000002070470AB1816101E00B048361704771
:10207000014800687047000008000020034800681D
:1020800003490978084401490860704708000020A6
:102090001000002010B50D48006840F400700B4996
:1020A00008600846006840F48060086008460068E0
:1020B00040F480700860032000F0C8F8002000F0B1
:1020C00007F800F04BF8002010BD0000003C024073
:1020D00070B588B0044600250026002221462D2038
:1020E00000F076F82D2000F063F800BF002001908A
:1020F0001648006840F4807014490860084600687B
:1021000000F48070019000BF00BF02A903A800F096
:1021100071F900F097F945000D48B5FBF0F0461E47
:102120000C480D49086040F2E7310B48C160466039
:1021300000210161816000F0C7FC20B9064800F071
:10214000DEFC08B070BD0120FBE700004038024013
:1021500040420F0000200040B802002008B500BF38
:10216000002000901148006840F480400F4908604A
:102170000846006800F48040009000BF00BF00BF28
:1021800000200090081F006840F08050091F086080
:102190000846006800F08050009000BF00BF002299
:1021A0000F21901E00F014F808BD000044380240D2
:1021B00001460846002809DB00F01F0301229A406F
:1021C00043099B0003F1E023C3F8002100BF7047DF
:1021D0002DE9F05F80460D461646002702F0EAFB27
:1021E000074639462A46334601F00700C0F1070A80
:1021F000BAF1040F02D94FF0040A01E0C0F1070A56
:10220000D14600F1040ABAF1070F02D24FF0000ADA
:1022100001E0A0F1030AD4464FF0010A0AFA09FAD4
:10222000AAF1010A0AEA020A0AFA0CFA4FF0010BB3
:102230000BFA0CFBABF1010B0BEA030B4AEA0B04A4
:102240002146404602F0A2FBBDE8F09F00BF00F02F
:102250000702064B19684FF6FF031940044B0B4366
:1022600043EA0221014B196000BF70470CED00E00A
:102270000000FA0570B504460D460CB9012070BD8A
:102280005848006800F00F00A84209D255490D7067
:102290000846006800F00F00A84201D00120EEE7D8
:1022A000207800F0020002281DD1207800F0040000
:1022B000042805D14C48006840F4E0504A490860C1
:1022C000207800F00800082805D14748006840F44D
:1022D0006040454908604448006820F0F000A1686B
:1022E000084341490860207800F00100A8B3606805
:1022F000012807D13C4808380068C0F34040B8B90D
:102300000120BCE76068022802D06068032807D17A
:10231000354808380068C0F3406048B90120AEE78E
:10232000314808380068C0F3400008B90120A6E72A
:102330002D48006820F00300616808432A490860BE
:10234000FFF796FE064609E0FFF792FE801B41F27A
:102350008831884202D9032091E707E022480068CB
:1023600000F00C006168B0EB810FEDD11D480068F2
:1023700000F00F00A84209D91A490D7008460068FC
:1023800000F00F00A84201D0012078E7207800F08B
:102390000400042807D11448006820F4E050E168E4
:1023A000084311490860207800F00800082808D187
:1023B0000D48006820F46040216940EAC1000A49E4
:1023C000086000F04FF808490968C1F30311074A93
:1023D000515CC840064908600020FFF779FE0020E4
:1023E0004DE70000003C024008380240407E0008F3
:1023F000140000200F2202600D4A126802F003024E
:1024000042600B4A126802F0F0028260084A1268C9
:1024100002F4E052C260064A126802F46042D20836
:102420000261044A126802F00F020A60704700005D
:1024300008380240003C0240014800687047000034
:102440001400002000B5FFF7F7FF04490968C1F345
:102450008221034A515CC84000BD00000838024098
:10246000507E00082DE9F047002400250026A146F3
:102470002548006800F00C0020B1042805D0082889
:102480003AD105E0DFF8849039E0DFF8849036E057
:102490001D48001F006800F03F041B48001F006833
:1024A00000F4800078B11A481749091F0968C1F380
:1024B0008811A0FB01700146224600233846FDF733
:1024C00039FF05460EE011480F49091F0968C1F39D
:1024D0008811A0FB01700146224600233846FDF713
:1024E00029FF05460848001F0068C0F30140401C52
:1024F0004600B5FBF6F902E0DFF8109000BF00BF20
:102500004846BDE8F0870000083802400024F40087
:1025100000127A00F8B504460CB90120F8BD207805
:1025200000F00100002874D0F948006800F00C00A9
:1025300004280DD0F648006800F00C00082813D1DC
:10254000F348001F006800F48000B0F5800F0BD145
:10255000EF4808380068C0F34040002859D0606850
:10256000002856D10120D9E700BF6068B0F5803F50
:1025700008D1E7480838006840F48030E449083959
:1025800008601EE06068B0F5A02F0DD1E048083863
:10259000006840F48020DE49083908600846006879
:1025A00040F4803008600CE0D9480838006820F416
:1025B0008030D749083908600846006820F4802038
:1025C000086000BF606890B1FFF752FD054606E065
:1025D000FFF74EFD401B642801D903209EE7CC483D
:1025E00008380068C0F340400028F1D011E0FFF740
:1025F0003FFD054606E0FFF73BFD401B642801D97F
:1026000003208BE7C24808380068C0F34040002828
:10261000F1D1207800F0020002285FD1BC480068A8
:1026200000F00C0058B1BA48006800F00C0008280F
:102630001CD1B748001F006800F48000B0B9B4484E
:1026400008380068C0F3400020B1E068012801D0DC
:10265000012063E7AE480838006820F0F8002169DF
:1026600040EAC100AA490839086037E0E06800B3D1
:102670000120A8490860FFF7FBFC054606E0FFF7CC
:10268000F7FC401B022801D9032047E7A04808387F
:102690000068C0F340000028F1D09D480838006869
:1026A00020F0F800216940EAC10099490839086022
:1026B00014E0002097490860FFF7DAFC054606E0C1
:1026C000FFF7D6FC401B022801D9032026E79048DB
:1026D00008380068C0F340000028F1D1207800F0ED
:1026E000080008282CD16069A8B101208A49086037
:1026F000FFF7BEFC054606E0FFF7BAFC401B0228C8
:1027000001D903200AE782486C300068C0F340001A
:102710000028F1D014E000207F490860FFF7A8FCF2
:10272000054606E0FFF7A4FC401B022801D9032060
:10273000F4E677486C300068C0F340000028F1D11F
:10274000207800F00400042870D10026704838304A
:10275000006800F0805090B900BF002000906C48E5
:102760003830006840F080506949383108600846C8
:10277000006800F08050009000BF00BF012667484D
:10278000006800F48070B0B96448006840F480705C
:1027900062490860FFF76CFC054606E0FFF768FC3D
:1027A000401B022801D90320B8E65C48006800F409
:1027B00080700028F2D000BFA068012808D15448DA
:1027C0006830006840F001005149683108601DE040
:1027D000A06805280DD14E486830006840F004001C
:1027E0004B49683108600846006840F00100086005
:1027F0000CE047486830006820F001004449683127
:1028000008600846006820F00400086000BFA06867
:10281000A8B1FFF72DFC054609E0FFF729FC401B96
:1028200041F28831884202D9032077E626E0384811
:1028300068300068C0F340000028EED013E0FFF7D6
:1028400017FC054608E0FFF713FC401B41F28831F6
:10285000884201D9032061E62D4868300068C0F342
:1028600040000028EFD1012E07D1294838300068F8
:1028700020F0805026493831086000BFA069B8B305
:102880002348006800F00C0008285ED0A0690228E8
:1028900046D100201F490866FFF7EAFB054606E01F
:1028A000FFF7E6FB401B022801D9032036E6184853
:1028B00008380068C0F340600028F1D1D4E907016E
:1028C0000843616A40EA81110122A06AC2EB50000C
:1028D00041EA00412C20005D41EA00600C49091FDB
:1028E000086001200B490866FFF7C2FB054607E0B8
:1028F0002DE0FFF7BDFB401B022801D903200DE6A8
:10290000034808380068C0F340600028F1D01EE09A
:102910000838024000004742800E474200700040E5
:1029200000200C490866FFF7A3FB054606E0FFF709
:102930009FFB401B022801D90320EFE506480068F1
:10294000C0F340600028F2D101E00120E6E500205C
:10295000E4E50000000047420038024010B504469C
:102960000CB9012010BD606A00B900BF0021A1624E
:1029700094F8510028B9002084F85000204600F057
:1029800033F8022084F851002068006820F04000ED
:1029900021680860D4E901010843E168084321691E
:1029A000084361690843218B01F400710843E16920
:1029B0000843216A0843A16A08432168086004218A
:1029C000A06901EA1040616A0843216848602068F4
:1029D000C06920F400602168C861002060650120A2
:1029E00084F851000020BDE710B586B004461421DC
:1029F00001A8FDF76AFD1B49206888422FD100BF5E
:102A0000002000901848006840F480501649086083
:102A10000846006800F48050009000BF00BF00BF6F
:102A20000020009010481438006840F001000E4962
:102A3000143908600846006800F00100009000BFEB
:102A400000BFE020019002200290002003900320AC
:102A500004900520059001A90448FFF7FBF906B092
:102A600010BD000000300140443802400000024028
:102A70007047704710B5024600BF92F83C0001282D
:102A800001D1022010BD012082F83C0000BF0220CD
:102A900082F83D00106843681068846823F0700372
:102AA0000868034324F080044868044310684360C6
:102AB00010688460012082F83D0000BF002082F889
:102AC0003C0000BF00BFDDE710B504460CB9012093
:102AD00010BD94F83D0028B9002084F83C00204641
:102AE00000F00CF8022084F83D00211D206800F061
:102AF000A3FC012084F83D000020E9E7704701466F
:102B00000868C06840F001000B68D86008688068F9
:102B100000F00702062A05D00868006840F00100AE
:102B20000B68186000207047704710B50446206895
:102B30000069C0F34000D8B12068C068C0F340000D
:102B4000B0B16FF002002168086101202077206891
:102B5000806900F0030018B12046FFF7E5FF05E0AB
:102B6000204600F0FFF8204600F0CAF90020207748
:102B700020680069C0F38000D8B12068C068C0F345
:102B80008000B0B16FF00400216808610220207756
:102B90002068806900F4407018B12046FFF7C4FF38
:102BA00005E0204600F0DEF8204600F0A9F90020FC
:102BB000207720680069C0F3C000D8B12068C068E1
:102BC000C0F3C000B0B16FF00800216808610420B4
:102BD00020772068C06900F0030018B12046FFF795
:102BE000A3FF05E0204600F0BDF8204600F088F97C
:102BF0000020207720680069C0F30010D8B1206859
:102C0000C068C0F30010B0B16FF010002168086117
:102C1000082020772068C06900F4407018B1204671
:102C2000FFF782FF05E0204600F09CF8204600F008
:102C300067F9002020772068006900F0010058B192
:102C40002068C06800F0010030B16FF00100216819
:102C50000861204600F056F920680069C0F3C010F2
:102C600058B12068C068C0F3C01030B16FF0800068
:102C7000216808612046FFF7FBFE20680069C0F369
:102C8000801058B12068C068C0F3801030B16FF078
:102C9000400021680861204600F040F92068006982
:102CA000C0F3401058B12068C068C0F3401030B184
:102CB0006FF02000216808612046FFF7DAFE10BDA2
:102CC00010B586B00446142101A8FDF7FEFB20686C
:102CD000B0F1804F1DD100BF002000901E48006859
:102CE00040F001001C4908600846006800F001003F
:102CF000009000BF00BF072001900220029000203A
:102D0000039004900120059001A91448FFF7A2F850
:102D100020E01349206888421CD100BF00200090A9
:102D20000D48006840F001000B4908600846006843
:102D300000F00100009000BF00BF082001900220B9
:102D400002900020039004900220059001A90348FE
:102D5000FFF780F806B010BD303802400000024096
:102D6000000C0040704770B504460D46164600BF83
:102D700094F83C00012801D1022070BD012084F8A4
:102D80003C0000BF022084F83D0036B1042E1BD069
:102D9000082E31D00C2E5ED145E02946206801F086
:102DA00057FD2068806940F008002168886120682C
:102DB000806920F0040021688861206880692969A1
:102DC00008432168886147E02946206800F0A0FB9D
:102DD0002068806940F4006021688861206880690B
:102DE00020F480602168886120688069296940EA50
:102DF0000120216888612FE02946206801F060FDEC
:102E00002068C06940F008002168C8612068C06976
:102E100020F004002168C8612068C069296908435E
:102E20002168C86118E02946206801F085FD206806
:102E3000C06940F400602168C8612068C06920F45E
:102E400080602168C8612068C069296940EA012062
:102E50002168C86100E000BF00BF012084F83D0088
:102E600000BF002084F83C0000BF00BF85E710B51C
:102E700004460CB9012010BD94F83D0028B900208B
:102E800084F83C00204600F00DF8022084F83D0054
:102E9000211D206800F0D0FA012084F83D000020B8
:102EA000E9E7000008B50168B1F1804F0FD100BF1C
:102EB000002100911049096841F001010E4A11609A
:102EC0001146096801F00101009100BF13E00B4AAF
:102ED000016891420FD100BF0021009106490968A5
:102EE00041F00801044A11601146096801F0080127
:102EF000009100BF00BF08BD40380240000C0040F8
:102F00007047000010B5044603492068884201D18B
:102F1000FFF7B4F810BD000000200040704700BF6C
:102F2000FEE700001FB50020009001900290039082
:102F30001B481C4908604FF4803048600021194844
:102F40008160012101610176002180F82010C162B9
:102F5000154981620021C1600221C161012180F80F
:102F600030104161FDF7ECFE08B1FDF722FD0A20AB
:102F70000090012001900520029069460948FDF764
:102F800019FD08B1FDF715FD0B20009002200190FE
:102F900069460448FDF70EFD08B1FDF70AFD1FBDA7
:102FA00000200140E80000200100000F10B50F488C
:102FB0000F4908600320486000210D488160C1600E
:102FC0004FF4002101614FF440114161002101766D
:102FD000012141768176C176002101774177FEF7A4
:102FE0003FFB08B1FDF7E5FC10BD000000640040A8
:102FF0009001002010B50F480F4908600320486079
:1030000000210D488160C1604FF4002101614FF43F
:103010004011416100210176012141760021817634
:10302000C17601774177FEF71BFB08B1FDF7C1FCC4
:1030300010BD000000680040B801002008B500BFC6
:10304000002000900A48006840F4800008490860A9
:103050000846006800F48000009000BF00BF002216
:1030600005213820FFF7B4F83820FFF7A1F808BD94
:103070003038024000B587B0142102A8FDF725FAC8
:1030800000BF002001906648006840F004006449D9
:1030900008600846006800F00400019000BF00BF0F
:1030A00000BF002001900846006840F080000860E2
:1030B0000846006800F08000019000BF00BF00BF1C
:1030C000002001900846006840F0010008600846B2
:1030D000006800F00100019000BF00BF00BF0020A9
:1030E00001900846006840F0020008600846006849
:1030F00000F00200019000BF00BF00BF002001905F
:103100000846006840F0080008600846006800F0C3
:103110000800019000BF00BF012210214148FEF7C6
:10312000A1FF002220213F48FEF79CFF0122112130
:103130003D48FEF797FF002204213C48FEF792FF2E
:103140000022E8213848FEF78DFF4FF460400290DE
:10315000374803900120049002A93248FEF77AFE16
:10316000302002900120039000200490059002A9D5
:103170002C48FEF76FFE012002900390002004907F
:10318000059002A92848FEF765FE04200290012060
:10319000039000200490059002A92448FEF75AFEEF
:1031A000082002900120039004900320059002A9BA
:1031B0001D48FEF74FFEF0200290012003900220F0
:1031C00004900020059002A91748FEF743FE4FF433
:1031D00080700290164803900120049002A91248C2
:1031E000FEF738FE4FF40070029012480390012061
:1031F000049002A90C48FEF72DFE0022052117209D
:10320000FEF7E6FF1720FEF7D3FF00220521282056
:10321000FEF7DEFF2820FEF7CBFF07B000BD000061
:10322000303802400008024000040240000C024016
:10323000000031100000321010B50E480E49086031
:103240004FF48270486000210B488160C1600161C9
:1032500041614FF4007181610021C16101624162ED
:1032600081620A21C162FFF779FB08B1FDF7A1FB7A
:1032700010BD000000300140E001002000B589B021
:103280000020079008901C216846FDF71EF94FF0BA
:1032900080401F4908605320486000211C4881601D
:1032A00040F6B731C160002101618161FFF7DFFDA8
:1032B00008B1FDF77EFB00200790089007A914488D
:1032C000FFF7D8FB08B1FDF774FB602000900020E9
:1032D000019002900490002269460D48FFF743FDDB
:1032E00008B1FDF766FB042269460948FFF73BFD7C
:1032F00008B1FDF75EFB082269460548FFF733FD7C
:1033000008B1FDF756FB0248FFF7DAFC09B000BD33
:103310003802002000B589B00020079008901C21D9
:103320006846FDF7D2F81648164908600020486044
:10333000002114488160C16001618161FFF797FD40
:1033400008B1FDF736FB00200790089007A90D484B
:10335000FFF790FB08B1FDF72CFB602000900020E8
:103360000190029004900C2269460648FFF7FBFC8E
:1033700008B1FDF71EFB0348FFF7A2FC09B000BD32
:10338000000C00407802002000BFFEE770470000FC
:1033900010B500BF502080F31188BFF34F8FBFF3EB
:1033A0006F8F00BF03F076FD18B14FF080500449D5
:1033B000086000BF002080F3118800BF10BD00002E
:1033C00004ED00E01448006840F470001249086001
:1033D0001248006840F001001049086000200F49C1
:1033E000083108600D4800680D4908400B49086025
:1033F0000C48091D0860081F006820F48020091F80
:103400000860002005490C3108604FF00060024957
:10341000803908607047000088ED00E00038024005
:10342000FFFFF6FE1030002410B50248FFF77DFBC9
:1034300010BD0000B802002010B50268294B984268
:103440000ED0B0F1804F0BD0274B984208D0274BBD
:10345000984205D0264B984202D0264B984203D181
:1034600022F070024B681A431E4B984220D0B0F1F4
:10347000804F1DD01C4B98421AD01C4B984217D03D
:103480001B4B984214D01B4B984211D01A4B9842B8
:103490000ED01A4B98420BD0194B984208D0194BBA
:1034A000984205D0184B984202D0184B984203D14D
:1034B00022F44072CB681A4322F080034C6943EA3D
:1034C000040202608B68C3620B688362054B9842FA
:1034D00002D0084B984201D10B6903630123436179
:1034E00010BD000000000140000400400008004042
:1034F000000C004000040140004001400044014035
:103500000048014000180040001C0040002000401E
:1035100030B5056A25F010050562026A43688469C2
:1035200024F4E04424F440740D6844EA052422F0B5
:1035300020028D6842EA0512124DA84200D103E034
:10354000114DA84207D100BF22F08002CD6842EAA7
:10355000051222F040020B4DA84202D00A4DA842AB
:1035600009D123F4806323F400634D6943EA8503A2
:103570008D6943EA8503436084614D688563026217
:1035800030BD0000000001400004014000BFFEE724
:1035900000B58BB000200A90079001200890002011
:1035A0000190029003900490059001200990002062
:1035B000069001A90F48FDF7DBFD08B100BFFEE74B
:1035C0000C48FEF7E6F902210A48FDF711FD0E202E
:1035D000069001A90848FDF7CBFD08B100BFFEE742
:1035E0000548FEF7D6F902210348FDF701FD0BB0AF
:1035F00000BD000090010020B801002070B50B460E
:103600000021002400250022DFED160AB0EE600A3A
:103610000488058806883244012110E030F81160E2
:10362000A64201DD30F8114030F81160AE4201DAF7
:1036300030F8115030F8116032444E1CF1B299420A
:10364000ECDB161B721B9E1E00EE906AB8EEE01AB1
:1036500000EE902AF8EE600AC0EE811AB0EE610A20
:1036600070BD00000000000003F00EFC0F49086070
:1036700000BF0F48007800F0B7F80E48007800F05F
:1036800003F90D48007800F0B5F90C48007800F017
:10369000FDF90B48007800F05FFA0A48007800F066
:1036A000B9FA0A21014803F00FFAE2E7A800002066
:1036B000A0000020A1000020A2000020A300002004
:1036C000A4000020A500002000B585B01422064902
:1036D0006846FCF7A6FE0021684602F0B5FD0349E6
:1036E000086005B000BD0000247E00080400002032
:1036F00070B505460C460B2D0ED00C2D08D0202D94
:1037000002D0212D10D10BE0204600F037FC0FE055
:10371000204600F00DFD0BE0204600F08BFD07E099
:10372000204600F0BBFC03E0204600F005FE00BF91
:1037300000BF70BD00B593B0302107A8FCF7C5FEEF
:10374000142102A8FCF7C1FE00BF0020019024480C
:10375000006840F08050224908600846006800F088
:103760008050019000BF00BF00BF002001901D48A5
:10377000006840F480401B4908600846006800F477
:103780008040019000BF00BF012007900004089016
:1037900002200D9041050E9104210F91A821109156
:1037A000022111910421129107A8FEF7B3FE08B17E
:1037B000FDF7FFF80F2002900220039000200490F4
:1037C0004FF4A05005904FF480500690052102A8B8
:1037D000FEF750FD08B1FDF7ECF813B000BD000096
:1037E000403802400070004010B5044624B1012C5E
:1037F00003D0022C39D137E037E0012280211C4868
:10380000FEF730FC642002F00EFD01222021184852
:10381000FEF728FC4FF4FA7002F005FD002210219B
:103820001348FEF71FFC642002F0FDFC002220215B
:103830000F48FEF717FC4FF4487002F0F4FC0D48F7
:1038400090ED000ADFED0C0A30EE200A0B4880ED07
:10385000000A40F6980002F0E6FC022008490870D1
:1038600001200849087000E000BF00BF10BD000043
:1038700000040240DC0000208394ED44D8000020C6
:10388000A0000020A100002010B5044624B1012CA6
:1038900003D0022C61D15AE05FE0012210213048B0
:1038A000FEF7E0FB142002F0BEFC012208212C48A8
:1038B000FEF7D8FB4FF4487002F0B5FC0022082157
:1038C0002748FEF7CFFB012220212548FEF7CAFB3F
:1038D0004FF4FA7002F0A7FC002210212048FEF7F6
:1038E000C1FB642002F09FFC002220211C48FEF74F
:1038F000B9FB4FF4487002F096FC1A4890ED000AAC
:10390000DFED190A30EE200A184880ED000A4FF466
:10391000966002F088FC012210211148FEF7A2FBFC
:10392000142002F080FC012208210D48FEF79AFBCA
:103930004FF4487002F077FC002208210848FEF797
:1039400091FB02200A4908700A49087005E000222C
:1039500080210348FEF786FB00BF00BF10BD0000BA
:1039600000040240DC000020A2B57444D80000200E
:10397000A0000020A100002010B54FF4C872024939
:103980000248FDF773FA10BDE83F0020E800002070
:10399000F0B589B006460D4614462088000A8DF819
:1039A000000020788DF801006088000A8DF8020080
:1039B000A0788DF80300A088000A8DF80400207913
:1039C0008DF80500E088000A8DF80600A0798DF8D2
:1039D000070002950020059004900820069008AB8F
:1039E0006A4602A93046FDF718FB0746384609B07B
:1039F000F0BD000010B5044624B1012C03D0022C08
:103A000036D134E034E0012280211A48FEF72AFB47
:103A1000012220211748FEF725FB4FF4FA7002F02F
:103A200002FC002210211348FEF71CFB642002F068
:103A3000FAFB002220210F48FEF714FB4FF44870D8
:103A400002F0F1FB0C4890ED000ADFED0C0A30EEBD
:103A5000200A0B4880ED000A4FF4966002F0E3FB69
:103A600002200849087001200749087000E000BFE3
:103A700000BF10BD00040240DC00002000004842EE
:103A8000D8000020A2000020A300002010B50446AA
:103A900024B1012C03D0022C4FD14DE04DE0012286
:103AA00040212748FEF7DEFAC82002F0BCFB0122C5
:103AB00010212348FEF7D6FA1E2002F0B4FB0122A3
:103AC00008211F48FEF7CEFA4FF42F7002F0ABFB2F
:103AD000002208211A48FEF7C5FA012220211848C1
:103AE000FEF7C0FA4FF4FA7002F09DFB002210219D
:103AF0001348FEF7B7FA642002F095FB002220215C
:103B00000F48FEF7AFFA4FF4487002F08CFB0D48F7
:103B100090ED000ADFED0C0A30EE200A0B4880ED34
:103B2000000A4FF4966002F07EFB022008490870FC
:103B300001200849087000E000BF00BF10BD000070
:103B400000040240DC000020A2B57444D80000202C
:103B5000A3000020A400002010B5044624B1012CCD
:103B600003D0022C47D145E045E001221021234833
:103B7000FEF778FA1E2002F056FB012208211F48AA
:103B8000FEF770FA4FF42F7002F04DFB002208216F
:103B90001A48FEF767FA012220211848FEF762FA58
:103BA0004FF4FA7002F03FFB002210211348FEF799
:103BB00059FA642002F037FB002220210F48FEF75B
:103BC00051FA4FF4487002F02EFB0D4890ED000AB8
:103BD000DFED0C0A30EE200A0B4880ED000A4FF4AE
:103BE000966002F020FB0220084908700120084975
:103BF000087000E000BF00BF10BD000000040240DC
:103C0000DC0000208394ED44D8000020A4000020B4
:103C1000A500002010B5044624B1012C03D0022CCD
:103C20006AD15EE068E0012210213448FEF71AFAFA
:103C30001E2002F0F8FA012208213048FEF712FA9D
:103C40004FF42F7002F0EFFA002208212B48FEF704
:103C500009FA012220212948FEF704FA4FF4FA70EC
:103C600002F0E1FA002210212448FEF7FBF964205B
:103C700002F0D9FA002220212048FEF7F3F94FF490
:103C8000487002F0D0FA1E4890ED000ADFED1D0AE0
:103C900030EE200A1C4880ED000A4FF4966002F0D6
:103CA000C2FA012210211548FEF7DCF91E2002F0AD
:103CB000BAFA012208211148FEF7D4F94FF42F7007
:103CC00002F0B1FA002208210C48FEF7CBF90220DD
:103CD0000E4908700E4908700E4908700E490870A8
:103CE0000AE0002280210548FEF7BCF900224021AD
:103CF0000248FEF7B7F900BF00BF10BD0004024044
:103D0000DC000020A2B57444D8000020A2000020EE
:103D1000A3000020A4000020A50000204178027824
:103D200041EA022109B20C4A1180C178827841EA45
:103D3000022109B2084A51804179027941EA0221FF
:103D400009B2054A9180C179827941EA022109B21A
:103D5000014AD18070470000B000002010B515481E
:103D60008088154908800846B0F900001349B1F968
:103D70000010884217D002211048B0F90000FFF768
:103D8000B7FC00210C48B0F90000FFF7B1FC01219D
:103D90000948B0F90000FFF7ABFC0748B0F9000094
:103DA0000649088005E001210448B0F90000FFF74A
:103DB0009FFC10BDB0000020C0000020C200002009
:103DC00070B50446002006E003EB800534F815507A
:103DD00021F81050401CD61702EB9676B0EBA60FD8
:103DE000F2DB70BD86B003F04FF80F490860FFF7B3
:103DF000C3FDFFF7CDFB0D490D4801F0C7F800F0FA
:103E00001BF814220B4901A8FCF70BFB002101A8A9
:103E100002F01AFA00BFFFF7A1FF00F0C7FF01216F
:103E2000014802F051FEF6E7AC000020B801002086
:103E300090010020587E000810B5012314224FF491
:103E4000FA51154801F0FCF84FF47A7002F0EBF9E2
:103E5000114890ED110A114880ED000A4FF400411D
:103E60000F48FEF7F7F80F4908704FF480410C48EF
:103E7000FEF7F0F80B4948704FF400510848FEF780
:103E8000E9F8084988704FF400710748FEF7E2F836
:103E90000449C87010BD00006C480020E4000020F8
:103EA00000080240D200002000040240018282612A
:103EB00080ED070A704710B504466068B0F900004D
:103EC000002803DD6068B0F9000003E06068B0F925
:103ED00000004042218A884240DD94F8200058B911
:103EE000012084F82000A06890ED000A84ED030A08
:103EF000FEF7BEF8606134E094ED030AA068D0EDEF
:103F0000000A30EE600AB5EEC00AF1EE10FA07DDE5
:103F100094ED030AA068D0ED000A30EE600A08E0D4
:103F200094ED030AA068D0ED000A30EE600AB1EE0D
:103F3000400AD4ED070AB4EEE00AF1EE10FA09D215
:103F4000FEF796F86169401AA169884209D90120F3
:103F5000207010BD002084F8200002E0002084F8CA
:103F6000200000BFF5E7002180F8201001707047A5
:103F700041608260002380F82030704710B52DED3D
:103F8000088B044624B1012C03D0022C69D164E0D3
:103F900067E03648C06A0078012833D1334800F022
:103FA000BBFD3249C86AFFF7DEFF304890ED110AC9
:103FB0002F4880ED000A90ED000AB5EEC00AF1EE40
:103FC00010FA0FD290ED000A2A4880ED000A284826
:103FD00090ED000ADFED280A30EE200A274880ED38
:103FE000000A0FE0224890ED000A254880ED000A03
:103FF0001F4890ED000ADFED230A30EE600A1F48EB
:1040000080ED000A2049B1F9020003F0BBFA41EC4F
:104010001B0B9FED1E0B53EC102B03F019FB41EC17
:10402000190B1648006803F009FE41EC1A0B53EC1B
:10403000192B03F093F841EC180B03F05DF80F49CE
:104040000860084690ED000A084801F0EFF80220E9
:10405000104908701049087003E0012000F06CF965
:1040600000BF00BFBDEC088B10BD00006C480020F5
:10407000E4000020DC00002000808944D8000020FB
:10408000E000002000809844B0000020FCA9F1D29C
:104090004D62603FA1000020A500002010B504463D
:1040A00024B1012C27D0022C2DD12BE0174890ED04
:1040B000001ADFED171A31EE211AF0EE410A154809
:1040C00090ED001ADFED141A31EE611AB0EE410ADC
:1040D000124801F014F80D4890ED000ADFED100AC7
:1040E00030EE200A0F4880ED000A02200E490870C9
:1040F0000E49087007E00B4890ED000A074801F0F0
:1041000095F800BF00BF00BF10BD0000DC0000201C
:1041100000004842E00000200000A0426C4800205F
:10412000A2B57444D8000020A1000020A500002002
:1041300010B5044624B1012C22D0022C64D15FE0DA
:10414000324890ED001ADFED321A31EE211AF0EE0E
:10415000410A304890ED001ADFED2F1A31EE611A56
:10416000B0EE410A2D4800F0CAFF284890ED000A41
:10417000DFED2B0A30EE200A2A4880ED000A43E0EA
:104180002948B0F90000002802DD01202749087005
:104190002648007801282CD1204890ED110A2148AA
:1041A000D0ED000A30EE600AB5EEC00AF1EE10FA6A
:1041B00008DD1A4890ED110A1A48D0ED000A30EED9
:1041C000600A09E0154890ED110A1648D0ED000A82
:1041D00030EE600AB1EE400AF7EE000AB4EEE00AF3
:1041E000F1EE10FA05D201201149087000200F49A4
:1041F00008700C4890ED000A084801F017F803E039
:10420000012000F099F800BF00BF10BDDC000020C5
:1042100000002042E00000200000A0426C48002086
:1042200000004842D8000020B0000020D00000204C
:10423000A000002010B5044624B1012C22D0022C8D
:1042400064D15FE0324890ED001ADFED321A31EEB2
:10425000211AF0EE410A304890ED001ADFED2F1AD6
:1042600031EE611AB0EE410A2D4800F048FF2848AF
:1042700090ED000ADFED2B0A30EE200A2A4880ED8F
:10428000000A43E02948B0F90000002802DD0120BF
:10429000274908702648007801282CD1204890ED45
:1042A000110A2148D0ED000A30EE600AB5EEC00ACE
:1042B000F1EE10FA08DD1A4890ED110A1A48D0ED17
:1042C000000A30EE600A09E0154890ED110A164820
:1042D000D0ED000A30EE600AB1EE400AF7EE000AB7
:1042E000B4EEE00AF1EE10FA05D20120114908708F
:1042F00000200F4908700C4890ED000A084800F0B3
:1043000095FF03E0012000F017F800BF00BF10BDCB
:10431000DC00002000004842E00000200000A04235
:104320006C480020A2B57444D8000020B0000020E2
:10433000D1000020A200002010B5044624B1012CB9
:1043400003D0022C0BD109E009E0064800F0E4FBA1
:104350000220054908700549087000E000BF00BF51
:1043600010BD00006C480020A1000020A500002026
:1043700010B52DED028B0446B0EE408A84ED168A0E
:1043800094ED160AD4ED0C0A20EE200A84ED110AF1
:10439000FDF76EFE216E401AA188884229D394ED64
:1043A000160AB5EEC00AF1EE10FA02DD94ED160A17
:1043B00003E094ED160AB1EE400A208900EE900A5F
:1043C000F8EE600AB4EEE00AF1EE10FA0AD294EDCB
:1043D000120AD4ED0D0A94ED161A00EE810A84ED4E
:1043E000120A03E09FED400A84ED120AFDF740FE39
:1043F0002066206848B1206890ED000AD4ED0E0ACE
:1044000020EE200A84ED140A0BE094ED160AD4ED98
:10441000170A30EE600AD4ED0E0A20EE200A84ED71
:10442000140AFDF725FE616E401AE18888420AD918
:1044300094ED140A84ED130A9FED2B0A84ED140AFF
:10444000FDF716FE606694ED120AD4ED0F0AB4EE85
:10445000E00AF1EE10FA03DB94ED0F0A84ED120A84
:1044600094ED120AD4ED0F0AF1EE600AB4EEE00A00
:10447000F1EE10FA05D894ED0F0AB1EE400A84ED82
:10448000120A94ED110AD4ED120A30EE200AD4ED8E
:10449000130A30EE200A84ED150A94ED150AD4EDC6
:1044A000100AB4EEE00AF1EE10FA03DB94ED100A04
:1044B00084ED150A94ED150AD4ED100AF1EE600AA8
:1044C000B4EEE00AF1EE10FA05D894ED100AB1EE60
:1044D000400A84ED150A94ED160A84ED170A94ED4E
:1044E000150ABDEC028B10BD0000000010B50024C1
:1044F0000460DFED112AC0ED032ADFED0F2AC0EDC5
:10450000042ADFED0D2AC0ED062ADFED0B2AC0EDEF
:10451000082ADFED092AC0ED092A80ED0C0AC0ED5A
:104520000D0A80ED0E1AC0ED0F1A80ED102A818061
:10453000C280038110BD00000000000070B5054678
:10454000AC6B40202064606C40F004006064204646
:10455000FCF7F5FB70BD70B50546AC6B206C00F048
:10456000500050BB206C40F40070206420688068CC
:1045700000F04050E8B9207ED8B92068C06A00F445
:10458000700020B12068806800F4806088B92068DD
:10459000406820F0200021684860206C20F4807082
:1045A0002064206C00F4805018B9206C40F00100A9
:1045B00020642046FCF7C4FA0BE0206C00F01000E9
:1045C00018B12046FCF7BBFB03E0A06BC16C28468A
:1045D000884770BD70B50446A56B2846FCF7AEFB56
:1045E00070BD000055494A6822F440324A604A686A
:1045F00043681A434A600268526822F48072036872
:104600005A6002685368026943EA022203685A60EA
:104610000268526822F0407203685A600268526869
:1046200083681A4303685A600268926822F4006241
:1046300003689A6002689268C3681A4303689A60C4
:104640003F4B826A9A4218D00268926822F07062E8
:1046500003689A6002689268836A1A4303689A60E2
:104660000268926822F0405203689A600268926879
:10467000C36A1A4303689A600BE00268926822F0EA
:10468000706203689A600268926822F04052036880
:104690009A600268926822F0020203689A600268D7
:1046A0009368027E43EA420203689A602022125C09
:1046B000A2B10268526842F4006203685A6002685C
:1046C000526822F4604203685A6002685368426A82
:1046D000521E43EA423203685A6005E0026852689B
:1046E00022F4006203685A600268D26A22F47002FF
:1046F0000368DA620268D36A828B521E43EA02526E
:104700000368DA620268926822F4007203689A60B1
:104710000268936890F8302043EA422203689A6066
:104720000268926822F4806203689A600268936863
:10473000426943EA822203689A607047002301407D
:104740000100000F30B50468246824F48024056853
:104750002C60046863608468402C04D10468A26003
:104760000468E16003E00468A1600468E26030BDB1
:10477000014600208A6A8B69CBB932B1012A0DD07B
:10478000022A03D0032A10D10EE000BFCB6A03F047
:104790008073B3F1807F00D1012007E0CB6AB3F1D1
:1047A000C07F00D1012001E000E000BF34E08B6950
:1047B000B3F5005F1AD132B1012A07D0022A03D023
:1047C000032A11D10AE000BF01200EE0CB6A03F0FA
:1047D0008073B3F1807F00D1012006E0CB6AB3F192
:1047E000C07F00D1012000E000BF15E032B1012AF6
:1047F00005D0022A04D0032A0CD103E000BF00BF79
:10480000012008E0CB6A03F08073B3F1807F00D110
:10481000012000E000BF00BF70470000014608789B
:1048200010381823B0FBF3F20848805CC865032AEF
:1048300005D908686FF30900001D886503E0086862
:104840006FF309008865886D70470000387E0008A6
:1048500030B5056A25F001050562026A436884697E
:1048600024F0700424F003040D682C4322F00202AB
:104870008D682A43104DA84200D103E00F4DA84295
:1048800006D100BF22F00802CD682A4322F00402BC
:10489000094DA84202D0094DA84207D123F48073E4
:1048A00023F400734D692B438D692B43436084616E
:1048B0004D684563026230BD0000014000040140C4
:1048C00030B5056A25F480750562026A4368C469DB
:1048D00024F0700424F003040D682C4322F40072C9
:1048E0008D6842EA0522124DA84200D103E0114D25
:1048F000A84207D100BF22F40062CD6842EA052237
:1049000022F480620A4DA84202D00A4DA84209D181
:1049100023F4805323F400534D6943EA05138D6952
:1049200043EA05134360C4614D68C563026230BD4C
:10493000000001400004014030B5056A25F48055AF
:104940000562036A4468C26922F4E04222F44072BC
:104950000D6842EA052223F400538D6843EA0533CB
:10496000084DA84202D0084DA84204D124F4804446
:104970004D6944EA85144460C2614D680564036270
:1049800030BD0000000001400004014010B50028C7
:1049900004DB0A07130E054A135406E00A07140E37
:1049A000034A00F00F031B1FD45410BD00E400E0C5
:1049B00018ED00E002480068C0F3022070470000D4
:1049C0000CED00E070B50446606B08B900BFFEE76F
:1049D000208CE18B401A05B200EE105AB8EEC00AE6
:1049E000606BFFF7C5FCBDEEC00A10EE100A05B201
:1049F000A584206841692046884770BD817964227A
:104A000091FBF2F1012908D1817991FBF2F302FBCC
:104A100013110A4A838B22F811308179642291FBA9
:104A2000F2F1022908D1817991FBF2F302FB131113
:104A3000034A838B22F8113070470000244700207E
:104A40006847002010B50446E06A20B1207910B113
:104A5000E06AFFF730FA207970B1012802D002280D
:104A60000FD104E0206841692046884714E020689F
:104A70000169204688470FE0206801682046884782
:104A80000AE00648007840F00100044908702068F8
:104A900001682046884700BF00BF10BD8C00002081
:104AA00070B504460D46608C6087E08B2087A08A35
:104AB000E0826878297840EA012000B2E083E87853
:104AC000A97840EA012000B260846879297940EA37
:104AD000012000B2A082B4F91400B4F91610884283
:104AE00002D0FDF7C5FAA060B4F91E0000EE100A6E
:104AF000B8EEC00ADFED070A60EE200AA06A00885F
:104B000000EE100AB8EE400A80EE801A84ED061A14
:104B100070BD00000000B44310B50446E06A10B157
:104B20000020E16A087000202071A083206881695C
:104B30002046884710BD000010B50446B4F9241083
:104B4000B4F92220891A00EE901AF8EEE00AB0EECD
:104B5000600A206BFFF70CFCBDEEC00A10EE100AD5
:104B600000B2A08394ED040AB5EEC00AF1EE10FA8B
:104B700026D0B4F92200B4F93A10401A00EE100A17
:104B8000B8EEC00ADFED110A20EE200AD4ED030AC8
:104B90009FED0F1A01EE200A84ED030AB4F91C0000
:104BA00000EE100AB8EEC00AD4ED030A94ED041A20
:104BB00000EE810ABDEEC00A10EE100A00B2A0831A
:104BC000206881692046884710BD00009A99993E67
:104BD0003333333F2DE9F04704460D4616461F4652
:104BE000DDE90889204600F023FA044610482060D9
:104BF000A7620020E062C4F83080C4F83490012D30
:104C000004D1A6F201200B4941F82040022D04D125
:104C1000A6F20120084941F8204005EBC50000EB51
:104C2000051006EB8000401EA0712046BDE8F0870D
:104C3000087F0008F84600203C47002070B52DEDA5
:104C4000028B05466868007908B1A86A10B9BDEC06
:104C5000028B70BD9FED4F8A00242AE04E48006809
:104C6000001D50F82400B0F91C00002807DD4A4858
:104C70000068001D50F82400B0F91C0007E0464809
:104C80000068001D50F82400B0F91C00404200EEFE
:104C9000100AB8EEC00AF3EE080A60EE200A9FED93
:104CA0003F1A80EE810A30EE080AB0EE408A601C9E
:104CB000C4B2042CD2DB9FED3A0AB4EEC08AF1EE06
:104CC00010FA1DDD002419E09FED350AC0EE080A38
:104CD000281D50F82400B0F91C0000EE100AB8EEB0
:104CE000C00A20EE800ABDEEC00A10EE100A01B222
:104CF000281D50F824008183601CC4B2042CE3DB1F
:104D00000126002441E0281D50F82400B0F92200BB
:104D1000002802DA4FF0FF3600E00126281D50F887
:104D20002400B0F91C0000EE100AB8EEC00A9FED96
:104D30001B1AC0EE010A05F1380050F82400B0F942
:104D40000000704300EE100AB8EEC00A9FED151A7D
:104D500010EE810AF0EE408A05F1280151F8240096
:104D6000FFF706FBBDEEC00A10EE100A01B2281DC7
:104D700050F8240081832A1D52F8240052F8242080
:104D8000126891698847601CC4B2042CBBDB00BF69
:104D90005DE70000000000009C000020CDCC4C44EA
:104DA0000000204200007A447047000070B56E4851
:104DB000006880B300242CE06C4850F8240030B325
:104DC0006A4850F82400407938B9684A52F82400FB
:104DD00052F82420126891688847FDF749F9634921
:104DE00051F824108968401A322808D90120A040BF
:104DF0005F490988814308B25D49088007E00120C6
:104E0000A0405B490988084300B259490880601CEA
:104E1000C4B20B2CD0DB5748006880B300242CE0D0
:104E2000554850F8240030B3534850F824004079D6
:104E300038B9514A52F8240052F824201268916877
:104E40008847FDF715F94C4951F824108968401A34
:104E5000322808D90120A04048490988814308B276
:104E60004649088007E00120A040444909880843DA
:104E700000B242490880601CC4B20B2CD0DB404811
:104E8000006818B13E480068FFF7D8FEFFF78CFFB6
:104E9000002600253648007800F00F0038B1394A66
:104EA0004FF4007130480068FEF772FD06460EB1FF
:104EB00045F001052E48007800F0F00038B1314A85
:104EC000083240F2FF1128480068FEF761FD0EB17C
:104ED00045F002052648008800F4E06038B1294A10
:104EE000103240F2FF2120480068FEF751FD0EB15C
:104EF00045F004052148007800F00F0030B1224A47
:104F00004FF400711B480068FEF742FD0EB145F0FA
:104F100008051A48007800F0F00038B11A4A083243
:104F200040F2FF1113480068FEF732FD0EB145F064
:104F300010051248008800F4E06038B1124A1032BF
:104F400040F2FF210B480068FEF722FD0EB145F04C
:104F5000200516210B48FBF796FA16210A48FBF7A5
:104F600092FA284670BD000094000020F846002008
:104F70008E000020980000203C4700209000002078
:104F80009C0000202447002068470020024A10604F
:104F9000024A116070470000940000209800002031
:104FA0002DE9F04105460E461746308884B21C486C
:104FB0000068854216D1B4F5037F13DAB4F5007F9B
:104FC00010DDA4F20120174951F8200050B1A4F2DD
:104FD0000121144B53F8210053F8211009684A6845
:104FE0003946904710480068854216D1B4F5037FD2
:104FF00013DAB4F5007F10DDA4F201200B4951F85B
:10500000200050B1A4F20121084B53F8210053F8BD
:10501000211009684A6839469047BDE8F0810000D0
:1050200094000020F8460020980000203C47002013
:105030000249016000210171704700002C7F0008C7
:105040002DE9F04104460F4690461D46E06A90B9AE
:10505000242000F02DF9064604F1440204F11C015D
:10506000FEF786FF0646E062E06A18B94FF0FF30AF
:10507000BDE8F08100BF00EE105AB8EE400A42468B
:105080003946E06AFEF712FF0020F1E770B50446EA
:10509000606B08B900BFFEE70025B4F92000B4F941
:1050A0001E10451AD4E90F10401AA16A098801FBA5
:1050B000005500EE105AB8EEC00A606BFFF758F9C1
:1050C000BDEEC00A10EE100A00B2A084B4F924109C
:1050D000B4F92220891A00EE901AF8EEE00AB0EE38
:1050E000600A206BFFF744F9BDEEC00A10EE100A0B
:1050F00000B2A083206881692046884770BD80ED9A
:10510000120AC0ED130A704770B52DED0E8B0446E0
:105110000D4629462046FFF7C3FC94F8500020B9FD
:10512000E08B2087012084F85000B4F91E00B4F908
:105130003810401AB0F5805F03DDE06B401EE0637D
:105140000AE0B4F91E00B4F93810401A10F5805F77
:1051500002DAE06B401CE063B4F91E0000EE100AB6
:10516000B8EEC00ADFED2C0A60EE200AA06A0088C3
:1051700000EE100AB8EE400A80EE801A84ED061A9E
:10518000B4F91E0000EE100AB8EEC00AF7EE000AED
:1051900060EE200AA06A8078400300EE100AB8EEA4
:1051A000C00A80EE801A9FED1C0A21EE000A10EE64
:1051B000106A304602F042FD41EC190BA16A887872
:1051C00002F0F7F941EC1E0B9FED140B53EC102B82
:1051D00002F03EFA41EC1C0BE06B02F0D3F941EC1B
:1051E0001D0B53EC1C2B02F075F841EC1B0B9FEDD3
:1051F0000D0B53EC102B02F02BFA41EC1A0B53EC75
:10520000192B01F0ABFF41EC180B01F075FF606446
:10521000BDEC0E8B70BD00000000B4430000000028
:105220000000F03F00000000008076400221017184
:10523000D0ED120AF4EEC00AF1EE10FA03D2D0ED6E
:10524000120AB0EE600AD0ED130AF4EEC00AF1EED5
:1052500010FA03DDD0ED130AB0EE600A816A897896
:1052600000EE901AF8EE600A60EE800A9FED0F1AC9
:10527000C0EE811AB0EE610AFDEEC00AF8EEE00A57
:1052800030EE601A816A098800EE901AF8EE600A22
:1052900061EE200AFDEEE00A10EE901A09B20184D8
:1052A000FDEEC00AC0ED100A704700000000B443D4
:1052B00010B5040007D1012405E0FBF743F90068AD
:1052C00000B9044880472046FBF740F90028F4D095
:1052D00010BD0000CF05000803B4019841000098FC
:1052E00050EAC12018BF04204A0D18BF40F0010049
:1052F00040F2FF72B2EB515F08BF40F0020001289C
:1053000008BF052002B070470020FBF759B9000024
:105310002DE9F04D2DED040B2DED0E8B96B0DDE952
:105320002550279CDDF890A025F0004624F0004889
:10533000BAF1000F14BF0121002101EB4502FC4925
:1053400053184A1093422AD3002814BF0123002384
:1053500003EB44030B44F7498B4220D358EA000186
:105360009FEDF59B76D0DFF8D8B35D4503D1BAF158
:10537000000F05D188E0BAF1000F08BF002100D06E
:10538000012101EB450111F5001F08D8002814BFC9
:105390000121002101EB440111F5001F0BD99DED06
:1053A000261B9DED240B16B0BDEC0E8B04B0BDE8A2
:1053B000F04D00F069BE0027002DBCBFE1498845D3
:1053C00021DAE1498845A8BF02271CDAC3451ADC67
:1053D000DE4901EB2851142908DDC1F1340220FA1D
:1053E00002F101FA02F282420DD108E058B9C1F18E
:1053F000140228FA02F101FA02F2424503D101F047
:105400000101C1F1020756EA0A0124D1002C22DA77
:10541000002D18BF022F01D0012F0AD00220FBF768
:10542000C9F816B0BDEC0E8B04B0BDE8F04D00F02D
:1054300013BE0220FBF7BEF800F00EFE51EC100B7D
:1054400001F04EFE41EC100B16B0BDEC0E8B04B01B
:10545000BDE8F08D18E09FEDBEAB9FEDBF8B00283F
:1054600071D1B848804522D105F1804010F58010F7
:1054700008BFBAF1000F07D0B3450ADC002CA8BF63
:105480009DED260BE0DA0DE0B0EE490AF0EE690A78
:10549000DAE7002C06DA9DED260B51EC100B01F03B
:1054A0001FFE6FE0AE48784490ED000BCCE7D84586
:1054B0004DD1002C48DA2EB186423AD1BAF1000F14
:1054C00042D126E0BAF1000F13D00220FBF772F8A8
:1054D00000F0F6FD8DED020B9DED240B8DED000B24
:1054E00010EE900A039961F31E0003909DED020BEC
:1054F000AAE78DED02AB9DED240B1AEE901A10EE8B
:10550000900A8DED000B61F31E0003909DED020BE0
:105510009AE78DED028B9DED240B18EE901A10EE9C
:10552000900A8DED000B61F31E0003909DED020BC0
:105530008AE709DA9DED240B51EC190B53EC102B83
:1055400001F0C8FE1EE020E09DED240B7CE78642C2
:105550001BDAB4F1804F0DD0A4F10050B0F1FF5030
:1055600013D1002D11DB9DED240B51EC100B01F03C
:1055700055F907E09DED240B53EC102B51EC100B6B
:1055800000F0C2BC41EC100B5EE79DED240B51EC2A
:10559000100B00F01BFEBAF1000FCDE90E0142D155
:1055A0009FED710B46B3A6F1E040B0F17F600CD0E7
:1055B0005E4538D1002D00DAA7B3022F0CBF0120C1
:1055C0004FF0FF3001F0DEFFDCE7002D01DD002CA5
:1055D0000DDA002D01DD002C1FDB002D16DA002C6A
:1055E00014DB012F08BF9FED620B3FF42DAFB0EE2F
:1055F0004A0AF0EE6A0A27E7022F18BF002D0CD0E6
:10560000012F0AD1002DFFF61FAF06E0002DB8BF15
:10561000002C08DA012F3FF417AFB0EE480AF0EE85
:10562000680A11E71BE0012000EBE57050EA070172
:1056300015D0791EB0EE498AF0EE698A084308BF9A
:105640009FED4D8B4E480025804570DD4D494E48FD
:10565000884514DDB0420DDB002C19DB2FE0012062
:10566000FAF7A8FF16B0BDEC0E8B04B0BDE8F04D04
:1056700000F016BDB34502DC002C09DC1FE08642B9
:1056800002DA002C1BDA03E05E452BDD002C16DD70
:105690000220FAF78FFF00F013FD8DED020B53ECA3
:1056A0001A2B51EC180B01F0D3FFCDE9000103993F
:1056B000019861F31E0003909DED020BC4E60220E9
:1056C000FAF778FF00F00CFD10EE901A18EE900A31
:1056D0008DED020B8DED008B61F31E0003909DEDAF
:1056E000020BB1E69DED0E0B53EC192B51EC100B98
:1056F00002F0BAF99FED260BCDE9080153EC102B0F
:105700009DED080B51EC100B01F0A2FF9FED221B49
:1057100053EC112B02F0D0F89DED081B53EC112B2C
:1057200001F096FF9FED1E1B53EC112B3CE08CE02B
:10573000FFFF1F00FFFF0F00000000000000F03F10
:105740000000F03F0000F07F0000404301FCFFFF3D
:10575000000000000000F07F0000000000000000DA
:105760004E2A000000000000000000000000008041
:10577000000000000000F0FF000000000000F0BF8B
:105780000000E0410000F043FFFFEF3F0000000099
:10579000000000000000D03F555555555555D53FE8
:1057A000000000000000E03F02F086F89DED080BCD
:1057B00041EC1A0B53EC102B51EC100B01F048FF8D
:1057C00053EC1A2B01F044FF41EC1A0B9FEDFE0B3A
:1057D00053EC102B9DED080B51EC100B01F038FF32
:1057E00041EC1B0B9FEDFA0B51EC1A0B53EC102BF9
:1057F00001F02EFF41EC1A0B9FEDF70B53EC102B31
:105800009DED080B51EC100B01F022FF53EC1A2B0D
:1058100002F02AF941EC1A0B51EC1B0B53EC1A2B3A
:1058200001F09CFC0690CDE906519DED060B53EC72
:105830001B2B51EC100B02F017F953EC1A2B02F052
:105840003BF841EC100B00F0A1B90020B6F5801F29
:105850000EDA9FEDE30B53EC102B9DED0E0B51EC8C
:10586000100B01F0F5FECDE90E016FF034000E468D
:1058700000EB2650A0F2FF37C6F31300DA4940F0E0
:105880007F6646F040568842D8BF002408DDD749DD
:105890008142C8BF012403DC0024A6F580167F1CCA
:1058A000D348784400EBC4000F9690ED00CB9DEDFB
:1058B0000E0B53EC1C2B51EC100B02F0D5F89DEDA8
:1058C0000E0B41EC1B0B53EC1C2B51EC100B01F09D
:1058D00045FC41EC100B51EC190B53EC102B01F073
:1058E000F9FC41EC1D0B51EC1B0B53EC1D2B01F093
:1058F000AFFE41EC1A0BBF488DED10AB784410950C
:1059000090ED000B4FF0005040EA660000EB844041
:105910008DED080B00F5002009909DED080B53EC70
:105920001C2B51EC100B02F09FF89DED0E1B53EC5D
:10593000112B01F0C1FF41EC100B53EC102B9DED2E
:10594000100B51EC100B01F083FE9DED080B41ECA8
:105950001C0B53EC102B9DED100B51EC100B01F0B8
:1059600077FE53EC1B2B01F0A7FF53EC1C2B02F02E
:105970007BF853EC1D2B01F06BFE41EC1C0B53EC40
:105980001A2B51EC1A0B01F063FE41EC1B0B9A48E9
:105990000621B0EE4B0AF0EE6B0A784400F0E0FA14
:1059A000B0EE401AF0EE601AB0EE41DAF0EE61DAD5
:1059B00053EC1B2B51EC1B0B01F04AFE53EC1D2B3F
:1059C00001F046FE9DED100B41EC1B0B53EC1A2B26
:1059D00051EC100B01F0C2FB53EC1C2B01F038FE14
:1059E00053EC1B2B01F0BAFB9DED100B41EC1B0B94
:1059F00053EC102B51EC100B01F02AFE41EC1D0B67
:105A00009FED7FEB53EC1E2B01F0A8FB53EC1B2BFF
:105A100001F0A4FB0890CDE908519DED080B53EC73
:105A20001E2B51EC100B02F01FF853EC1D2B02F053
:105A30001BF853EC1B2B01F03FFF9DED080B41ECD5
:105A40001D0B53EC102B9DED100B51EC100B01F0C6
:105A5000FFFD41EC1B0B53EC1A2B51EC1D0B01F01D
:105A6000F7FD9DED080B41EC1A0B53EC102B51EC9C
:105A70001C0B01F0EDFD53EC1A2B01F06FFB41EC18
:105A80001A0B51EC1B0B53EC1A2B01F067FB0C901B
:105A9000CDE90C519DED0C0B53EC1B2B51EC100B75
:105AA00001F0E2FF53EC1A2B01F006FF41EC1B0B57
:105AB0009FED550B53EC102B9DED0C0B51EC100B87
:105AC00001F0C6FD41EC1A0B9FED510B51EC1B0B85
:105AD00053EC102B01F0BCFD41EC1B0B9FED4E0B6A
